S00F0000636F756E7465722E7372656315
S113000012C01FC058C01DC01CC01BC022C019C0D4
S113001018C017C016C015C014C013C012C016C330
S11300202AC30FC00EC011241FBECFEDCDBF10E0F8
S1130030A0E6B0E001C01D92A639B107E1F7C5D131
S1130040CAC3DECF20E80FB6F89426BD86BD0FBE26
S113005008951F920F920FB60F9211248F939F93BE
S1130060AF93BF938091660090916700A091680060
S1130070B09169000196A11DB11D80936600909313
S11300806700A0936800B0936900BF91AF919F91FE
S11300908F910F900FBE0F901F90189585E083BF2E
S11300A082E089BF10926600109267001092680087
S11300B01092690008951F920F920FB60F921124A7
S11300C0EF92FF920F931F932F933F934F935F935E
S11300D08F939F93AF93BF93F89480916600909110
S11300E06700A0916800B091690022B7E0906A00AF
S11300F0F0906B0000916C0010916D0030E040E0D6
S113010050E0BA2FA92F982F8827282B392B4A2B58
S11301105B2B2E193F09400B510B2C5D35404040A1
S11301205040F8F08091660090916700A0916800BB
S1130130B091690022B730E040E050E0BA2FA92F17
S1130140982F8827282B392B4A2B5B2B20936A0066
S113015030936B0040936C0050936D0081E080936A
S11301606500BF91AF919F918F915F914F913F91A6
S11301702F911F910F91FF90EF900F900FBE0F9052
S11301801F90189592B3987E92BB22B3982F9770C4
S1130190922B92BB8850823008F4949A88B3807F63
S11301A088BB88B36F70862B88BB0895D19A87B3B8
S11301B08F6087BB81B3876181BB8D9A9598C49A00
S11301C0C69A1092630086B3807180936300109284
S11301D0640086B3807480936400809163008823F4
S11301E021F480916400882339F0939A85B788605C
S11301F085BF8BB780688BBF80E060E0C3DF7894F5
S113020008958F929F92AF92BF92CF92DF92EF9216
S1130210FF920F931F93CF93DF93282F362F6AE01B
S1130220A7D2082F822FA4D2992E0A3010F0A0D280
S1130230092F832F6AE09CD2182F832F99D2892EFD
S11302401A3010F095D2192FC0E0D0E094E6A92E10
S1130250B12C8AEFC82ED12C7501EC1AFD0A802F1F
S1130260692D90DFCE0164E170E08ED2CB0120E0F5
S113027030E005C0F6013197F1F72F5F3F4F2817A3
S11302803907C4F3812F682D7DDFC70164E170E075
S11302907BD2CB0120E030E005C0F6013197F1F7C5
S11302A02F5F3F4F28173907C4F3C336D10511F028
S11302B02196D2CF802F692D65DFDF91CF911F91D9
S11302C00F91FF90EF90DF90CF90BF90AF909F90F1
S11302D08F900895809160002091610040916200A8
S11302E090E0843608F091E080E0243608F081E064
S11302F09823892F90E020E030E0443610F021E08C
S113030030E082239323892B59F01092610080916D
S11303106100809360008091620084568093620043
S11303200895EF92FF920F931F93DF93CF9300D022
S11303300F92CDB7DEB7182FC0D0198283EF8A830E
S11303401B8300E010E07E010894E11CF11CC7014E
S113035063E0E5D00F5F1F4F09311105C1F780E05D
S113036037D10F900F900F90CF91DF911F910F9184
S1130370FF90EF900895EF92FF920F931F93DF93F6
S1130380CF9300D00F92CDB7DEB7182F96D0198235
S113039082EF8A831B8300E010E07E010894E11C55
S11303A0F11CC70163E0BBD00F5F1F4F093111057A
S11303B0C1F780E00DD10F900F900F90CF91DF9196
S11303C01F910F91FF90EF9008951092600010928A
S11303D0610010926200EADE85E083BF82E089BF9B
S11303E010926600109267001092680010926900E3
S11303F080E0EED0809165008823B1F11092650011
S1130400789480916400882399F0809162008F5FD2
S1130410809362005FDF8091620083DF80916200DD
S113042060916E00EEDE8091620080936E001CC0CD
S113043090916200809161008917B0F4809160000E
S113044080936E00809161008F5F80936100809142
S11304506100809360003EDF8091600060916E00D7
S1130460D0DE8091600087DFE8D0882319F2D4D0F1
S1130470823F19F0833FE9F417C0CED08093610026
S113048080916300882309F0B5CF809164008823AC
S113049009F0B0CF8091610060916E00B2DE80916E
S11304A0610080936E00A6CFB7D080936200A2CF84
S11304B0B3D0C3D08823E1F79DCFC59AC79ABF9A1A
S11304C0BD9A8FEF8FB98AE28DB980EF8EB9089506
S11304D080916F0008958EB921E09BE2822F8A9566
S11304E0F1F79DB9B79BFECF822F8A95F1F79DB99D
S11304F0769BF4CF81E08A95F1F78FB19FEF9FB996
S1130500BD9A0895C598C79AB79BFECF81E0982FEE
S11305109A95F1F7C59A8A95F1F781E008950F93BA
S11305201F93CF93DF93FC01162F81E080936F001C
S1130530808180FD03C083E080936F00C79AC79BCE
S1130540FECF81E0982F9A95F1F7C5988A95F1F737
S1130550C798C59AEF010FEF80916F008370C9F0BF
S1130560C79888818FB980EFB6DFBD988EEFB3DF6F
S113057090916F0080FF09C090FF02C086E001C027
S113058085E080936F0080E015C09E7F90936F009C
S11305900BC0BD9880EF9FDF8883113011F40FB931
S11305A001C01FB88EEF97DF115021961123A1F6D9
S11305B0A9DF81E0DF91CF911F910F9108951092EF
S11305C095001092840010927200109273000895A6
S11305D01092950010928400109272001092730091
S11305E080937100C79AC59ABF9ABD9888EA8DB95D
S11305F080EF8EB90895282F909173009F5F9F70AC
S1130600809172009817E1F3E92FF0E0EC58FF4F66
S113061020839093730008959091950080918400B5
S11306208917E1F3E0919500EF5FEF70E093950097
S1130630F0E0EB57FF4F80810895909195008091F1
S1130640840020E0891321E0822F08951F920F92E5
S11306500FB60F9211248F938EB110927000BD9833
S113066086B388EF8DB980EF8EB98F910F900FBE4E
S11306700F901F9018951F920F920FB60F9211248E
S11306802F933F938F939F93EF93FF9380917000E9
S1130690823009F445C0833030F4882369F0813016
S11306A009F05BC025C0843009F440C08430E8F010
S11306B0853009F052C03FC08FB1882359F02FB163
S11306C030E0359527958091710090E0281739071F
S11306D009F03FC0789B02C081E001C084E08093B0
S11306E070001FB8BD9A8EE737C08FB1882389F593
S11306F09091720080917300891759F18091720072
S11307008F5F8F7080937200E0917200F0E0EC587C
S1130710FF4F80818FB982E080937000BD9A1BC027
S113072083E080937000BD981FB8DDCF85E080938F
S11307307000BD9810C09FB1809184008F5F8F704E
S113074080938400E0918400F0E0EB57FF4F9083A6
S1130750C5CF88EA8DB980E78EB9FF91EF919F915B
S11307608F913F912F910F900FBE0F901F9018956E
S1130770991B79E004C0991F961708F0961B881FEF
S11307807A95C9F78095089597FB092E07260AD014
S113079077FD04D00CD006D000201AF47095619532
S11307A07F4F0895F6F7909581959F4F0895AA1B62
S11307B0BB1B51E107C0AA1FBB1FA617B70710F048
S11307C0A61BB70B881F991F5A95A9F7809590957A
S10D07D0BC01CD010895F894FFCF99
S9030000FC
