S00F0000636F756E7465722E7372656315
S113000012C01FC051C01DC01CC01BC01BC019C0E2
S113001018C017C016C015C014C013C012C0EAC25D
S1130020FEC20FC00EC011241FBECFEDCDBF10E025
S1130030A0E6B0E001C01D92A539B107E1F7A8D14F
S11300409EC3DECF1F920F920FB60F9211248F938F
S11300509F93AF93BF938091650090916600A091A8
S11300606700B09168000196A11DB11D80936500E1
S113007090936600A0936700B0936800BF91AF911E
S11300809F918F910F900FBE0F901F90189585E050
S113009083BF82E089BF10926500109266001092BF
S11300A067001092680008951F920F920FB60F9286
S11300B01124EF92FF920F931F932F933F934F932B
S11300C05F938F939F93AF93BF93F894E0906500F1
S11300D0F0906600009167001091680082B720914B
S11300E0690030916A0040916B0050916C0090E07F
S11300F0A0E0B0E0102F0F2DFE2CEE248E299F29B6
S1130100A02BB12B821B930BA40BB50B8C3D25E0CC
S1130110920720E0A20720E0B207F8F020916500E2
S113012030916600409167005091680082B790E07A
S1130130A0E0B0E0542F432F322F2227822B932BA1
S1130140A42BB52B8093690090936A00A0936B0055
S1130150B0936C0081E080936400BF91AF919F9154
S11301608F915F914F913F912F911F910F91FF902C
S1130170EF900F900FBE0F901F901895EF92FF9283
S11301800F931F93DF93CF93CDB7DEB7C450CDBF8A
S11301908C8367D1198292EF9A838C818B8309E1D6
S11301A010E07E010894E11CF11CC70163E08BD1CF
S11301B001501040D1F780E0DFD1CC5FCDBFCF91AB
S11301C0DF911F910F91FF90EF900895EF92FF92AE
S11301D00F931F93DF93CF93CDB7DEB7C450CDBF3A
S11301E08C833FD1198293EF9A838C818B8309E1AD
S11301F010E07E010894E11CF11CC70163E063D1A7
S113020001501040D1F780E0B7D1CC5FCDBFCF9182
S1130210DF911F910F91FF90EF90089592B3987E14
S113022092BB22B3982F9770922B92BB8850823046
S113023008F4949A88B3807F88BB88B36F70682B66
S113024068BB0895D19A87B38F6087BB81B38761F8
S113025081BB8D9A9598C49AC69A1092620096B3FF
S11302609071909362001092630086B380748093BF
S113027063009923D1F08823D1F088E068E0CEDFD1
S1130280959A8FEE99E4A2E081509040A040E1F766
S113029000C0000095988FEE99E4A2E08150904050
S11302A0A040E1F700C00000E8CF882339F0939A1A
S11302B085B7886085BF8BB780688BBF80E060E0BE
S11302C0ADDF789408958F929F92AF92BF92CF92B0
S11302D0DF92EF92FF920F931F93CF93DF93362F0A
S11302E02AE0622F19D2D82EB92E8A3010F014D2F7
S11302F0D92E2AE0832F622F0FD2C82EA92E8A303E
S113030010F00AD2C92EC0E0D0E084E6E82EF12C29
S113031004E110E047018C1A9D0A8D2D6B2D7EDFC0
S1130320CE01B80105D280E090E007C0E9EFF0E02B
S11303303197F1F700C00000019686179707B4F3D0
S11303408C2D6A2D6BDFC401B801F2D180E090E0FE
S113035007C0E9EFF0E03197F1F700C00000019623
S113036086179707B4F3C336D10511F02196D2CF7F
S11303708D2D6B2D53DFDF91CF911F910F91FF9046
S1130380EF90DF90CF90BF90AF909F908F900895A3
S1130390109260001092610055DF79DE80E0ECD0AD
S11303A0809164008823A1F1109264007894809174
S11303B06300882391F08091610080936D008091A7
S11303C061008F5F809361008091610060916D0096
S11303D07ADF80916100FADE1BC08091620088237D
S11303E0B9F09091610080916000891788F4809140
S11303F0600080936D00809160008F5F8093600047
S11304008091600060916D005EDF80916000B6DED7
S1130410E8D0882329F2D4D0823F19F0833FE9F44D
S113042017C0CED08093600080916200882309F0C9
S1130430B7CF80916300882309F0B2CF8091600028
S113044060916D0040DF8091600080936D00A8CFC3
S1130450B7D080936100A4CFB3D0C3D08823E1F791
S11304609FCFC59AC79ABF9ABD9A8FEF8FB98AE278
S11304708DB980EF8EB9089580916E0008958EB97C
S113048021E09BE2822F8A95F1F79DB9B79BFECFBD
S1130490822F8A95F1F79DB9769BF4CF81E08A95F6
S11304A0F1F78FB19FEF9FB9BD9A0895C598C79A88
S11304B0B79BFECF81E0982F9A95F1F7C59A8A955C
S11304C0F1F781E008950F931F93CF93DF93FC011D
S11304D0162F81E080936E00808180FD03C083E04D
S11304E080936E00C79AC79BFECF81E0982F9A95A0
S11304F0F1F7C5988A95F1F7C798C59AEF010FEF00
S113050080916E008370C9F0C79888818FB980EF9D
S1130510B6DFBD988EEFB3DF90916E0080FF09C007
S113052090FF02C086E001C085E080936E0080E009
S113053015C09E7F90936E000BC0BD9880EF9FDF27
S11305408883113011F40FB901C01FB88EEF97DF03
S1130550115021961123A1F6A9DF81E0DF91CF91FB
S11305601F910F910895109294001092830010929D
S113057071001092720008951092940010928300FA
S1130580109271001092720080937000C79AC59AFD
S1130590BF9ABD9888EA8DB980EF8EB90895282F47
S11305A0909172009F5F9F70809171009817E1F3A2
S11305B0E92FF0E0ED58FF4F2083909372000895E7
S11305C090919400809183008917E1F3E091940065
S11305D0EF5FEF70E0939400F0E0EC57FF4F808101
S11305E00895909194008091830020E0891321E084
S11305F0822F08951F920F920FB60F9211248F939A
S11306008EB110926F00BD9886B388EF8DB980EFDC
S11306108EB98F910F900FBE0F901F9018951F9257
S11306200F920FB60F9211242F933F938F939F93A2
S1130630EF93FF9380916F00823009F445C08330BB
S113064030F4882369F0813009F05BC025C0843020
S113065009F440C08430E8F0853009F052C03FC04E
S11306608FB1882359F02FB130E0359527958091CB
S1130670700090E02817390709F03FC0789B02C04A
S113068081E001C084E080936F001FB8BD9A8EE7BB
S113069037C08FB1882389F59091710080917200E1
S11306A0891759F1809171008F5F8F708093710069
S11306B0E0917100F0E0ED58FF4F80818FB982E046
S11306C080936F00BD9A1BC083E080936F00BD9838
S11306D01FB8DDCF85E080936F00BD9810C09FB137
S11306E0809183008F5F8F7080938300E0918300FB
S11306F0F0E0EC57FF4F9083C5CF88EA8DB980E7CF
S11307008EB9FF91EF919F918F913F912F910F900F
S11307100FBE0F901F901895991B79E004C0991F84
S1130720961708F0961B881F7A95C9F78095089547
S113073097FB092E07260AD077FD04D00CD006D0EB
S113074000201AF4709561957F4F0895F6F79095FF
S113075081959F4F0895AA1BBB1B51E107C0AA1F97
S1130760BB1FA617B70710F0A61BB70B881F991F4E
S11307705A95A9F780959095BC01CD010895F894F8
S1050780FFCFA5
S9030000FC
