S00F0000636F756E7465722E7372656315
S113000012C01FC051C01DC01CC01BC01BC019C0E2
S113001018C017C016C015C014C013C012C024C322
S113002038C30FC00EC011241FBECFEDCDBF10E0EA
S1130030A0E6B0E001C01D92A639B107E1F7D9D11D
S1130040D8C3DECF1F920F920FB60F9211248F9355
S11300509F93AF93BF938091660090916700A091A6
S11300606800B09169000196A11DB11D80936600DE
S113007090936700A0936800B0936900BF91AF911B
S11300809F918F910F900FBE0F901F90189585E050
S113009083BF82E089BF10926600109267001092BD
S11300A068001092690008951F920F920FB60F9284
S11300B01124EF92FF920F931F932F933F934F932B
S11300C05F938F939F93AF93BF93F894E0906600F0
S11300D0F0906700009168001091690082B7209148
S11300E06A0030916B0040916C0050916D0090E07B
S11300F0A0E0B0E0102F0F2DFE2CEE248E299F29B6
S1130100A02BB12B821B930BA40BB50B8C3D25E0CC
S1130110920720E0A20720E0B207F8F020916600E1
S113012030916700409168005091690082B790E077
S1130130A0E0B0E0542F432F322F2227822B932BA1
S1130140A42BB52B80936A0090936B00A0936C0052
S1130150B0936D0081E080936500BF91AF919F9152
S11301608F915F914F913F912F911F910F91FF902C
S1130170EF900F900FBE0F901F901895EF92FF9283
S11301800F931F93DF93CF93CDB7DEB7C450CDBF8A
S11301908C83A1D1198292EF9A838C818B8309E19C
S11301A010E07E010894E11CF11CC70163E0C5D195
S11301B001501040D1F780E019D2CC5FCDBFCF9170
S11301C0DF911F910F91FF90EF900895EF92FF92AE
S11301D00F931F93DF93CF93CDB7DEB7C450CDBF3A
S11301E08C8379D1198293EF9A838C818B8309E173
S11301F010E07E010894E11CF11CC70163E09DD16D
S113020001501040D1F780E0F1D1CC5FCDBFCF9148
S1130210DF911F910F91FF90EF90089592B3987E14
S113022092BB22B3982F9770922B92BB8850823046
S113023008F4949A88B3807F88BB88B36F70682B66
S113024068BB0895D19A87B38F6087BB81B38761F8
S113025081BB8D9A9598C49AC69A1092630086B30E
S11302608071809363001092640086B380748093DD
S1130270640080916300882361F180916400882385
S113028041F188E068E0CADF959A8FEE99E4A2E034
S113029081509040A040E1F700C0000095988FEE97
S11302A099E4A2E081509040A040E1F700C0000032
S11302B0E8CF80916400882339F0939A85B78860E9
S11302C085BF8BB780688BBF80E060E0A7DF789440
S11302D0089580916300882381F7EBCF8F929F92DA
S11302E0AF92BF92CF92DF92EF92FF920F931F9340
S11302F0CF93DF93362F2AE0622F48D2D82EB92E1F
S11303008A3010F043D2D92E2AE0832F622F3ED2B6
S1130310C82EA92E8A3010F039D2C92EC0E0D0E000
S113032084E6E82EF12C04E110E047018C1A9D0AC2
S11303308D2D6B2D73DFCE01B80134D280E090E0B7
S113034007C0E9EFF0E03197F1F700C00000019633
S113035086179707B4F38C2D6A2D60DFC401B801AA
S113036021D280E090E007C0E9EFF0E03197F1F7A7
S113037000C00000019686179707B4F3C336D10571
S113038011F02196D2CF8D2D6B2D48DFDF91CF91C7
S11303901F910F91FF90EF90DF90CF90BF90AF909F
S11303A09F908F900895909160008091610040919A
S11303B0620021E0843608F420E081E0943608F4F9
S11303C080E0282330E081E090E0443610F480E0BF
S11303D090E082239323009759F01092610080915A
S11303E06100809360008091620084568093620073
S11303F0089510926000109261001092620022DF52
S113040046DE80E0F3D0809165008823D1F110921C
S11304106500789480916400882399F0809162004B
S11304208F5F80936200BFDF80916200CFDE809196
S1130430620060916E0052DF8091620080936E00D2
S113044020C0809163008823E1F090916200809144
S113045061008917B0F48091600080936E008091F0
S113046061008F5F809361008091610080936000E0
S11304709ADF8091600060916E0030DF80916000AF
S11304807DDEE9D0882309F4BECFD4D0823F19F0B1
S1130490833FE9F417C0CED080936100809163005C
S11304A0882309F0B0CF80916400882309F0ABCF92
S11304B08091610060916E0011DF809161008093F2
S11304C06E00A1CFB7D0809362009DCFB3D0C3D0CC
S11304D08823E1F798CFC59AC79ABF9ABD9A8FEF40
S11304E08FB98AE28DB980EF8EB9089580916F003B
S11304F008958EB921E09BE2822F8A95F1F79DB988
S1130500B79BFECF822F8A95F1F79DB9769BF4CFE6
S113051081E08A95F1F78FB19FEF9FB9BD9A089555
S1130520C598C79AB79BFECF81E0982F9A95F1F7AB
S1130530C59A8A95F1F781E008950F931F93CF939D
S1130540DF93FC01162F81E080936F00808180FD92
S113055003C083E080936F00C79AC79BFECF81E0FE
S1130560982F9A95F1F7C5988A95F1F7C798C59A87
S1130570EF010FEF80916F008370C9F0C7988881F5
S11305808FB980EFB6DFBD988EEFB3DF90916F0027
S113059080FF09C090FF02C086E001C085E080931F
S11305A06F0080E015C09E7F90936F000BC0BD98D4
S11305B080EF9FDF8883113011F40FB901C01FB899
S11305C08EEF97DF115021961123A1F6A9DF81E068
S11305D0DF91CF911F910F91089510929500109281
S11305E08400109272001092730008951092950086
S11305F01092840010927200109273008093710024
S1130600C79AC59ABF9ABD9888EA8DB980EF8EB90A
S11306100895282F909173009F5F9F7080917200BE
S11306209817E1F3E92FF0E0EC58FF4F2083909303
S11306307300089590919500809184008917E1F3E7
S1130640E0919500EF5FEF70E0939500F0E0EB57D9
S1130650FF4F80810895909195008091840020E05F
S1130660891321E0822F08951F920F920FB60F92E3
S113067011248F938EB110927000BD9886B388EFC9
S11306808DB980EF8EB98F910F900FBE0F901F9090
S113069018951F920F920FB60F9211242F933F9328
S11306A08F939F93EF93FF9380917000823009F4AE
S11306B045C0833030F4882369F0813009F05BC091
S11306C025C0843009F440C08430E8F0853009F056
S11306D052C03FC08FB1882359F02FB130E0359517
S11306E027958091710090E02817390709F03FC0E1
S11306F0789B02C081E001C084E0809370001FB841
S1130700BD9A8EE737C08FB1882389F59091720026
S113071080917300891759F1809172008F5F8F70F7
S113072080937200E0917200F0E0EC58FF4F8081FA
S11307308FB982E080937000BD9A1BC083E08093E0
S11307407000BD981FB8DDCF85E080937000BD9820
S113075010C09FB1809184008F5F8F70809384005C
S1130760E0918400F0E0EB57FF4F9083C5CF88EA17
S11307708DB980E78EB9FF91EF919F918F913F9151
S11307802F910F900FBE0F901F901895991B79E031
S113079004C0991F961708F0961B881F7A95C9F70D
S11307A08095089597FB092E07260AD077FD04D07B
S11307B00CD006D000201AF4709561957F4F0895EF
S11307C0F6F7909581959F4F0895AA1BBB1B51E1A5
S11307D007C0AA1FBB1FA617B70710F0A61BB70BAD
S11307E0881F991F5A95A9F780959095BC01CD0152
S10907F00895F894FFCF08
S9030000FC
